:020000040800F2
:100000000000022025370008393500083F35000878
:10001000453500084B350008513500080000000048
:10002000000000000000000000000000573500083C
:1000300065350008000000007335000881350008B0
:1000400075370008753700087537000875370008E0
:1000500075370008753700087537000875370008D0
:1000600075370008753700087537000875370008C0
:1000700075370008753700087537000875370008B0
:1000800075370008753700087537000875370008A0
:100090007537000875370008753700087537000890
:1000A0007537000875370008753700087537000880
:1000B0008D3500087537000875370008753700085A
:1000C0007537000875370008753700087537000860
:1000D0007537000875370008753700087537000850
:1000E0007537000875370008753700087537000840
:1000F0007537000875370008753700087537000830
:10010000753700087537000875370008753700081F
:10011000753700087537000875370008753700080F
:1001200075370008753700087537000875370008FF
:1001300075370008753700087537000875370008EF
:1001400075370008753700087537000875370008DF
:1001500075370008753700087537000875370008CF
:1001600075370008753700087537000875370008BF
:100170007537000875370008753700080000000063
:0801800075370008753700080F
:1001880010B5054C237833B9044B13B10448AFF3C9
:1001980000800123237010BD1C0000200000000017
:1001A8002C6D000808B5034B1BB103490348AFF396
:1001B800008008BD00000000200000202C6D000811
:1001C80081F0004102E000BF83F0004330B54FEA00
:1001D80041044FEA430594EA050F08BF90EA020F6D
:1001E8001FBF54EA000C55EA020C7FEA645C7FEA00
:1001F800655C00F0E2804FEA5454D4EB5555B8BF23
:100208006D420CDD2C4480EA020281EA030382EA93
:10021800000083EA010180EA020281EA0303362D25
:1002280088BF30BD11F0004F4FEA01314FF4801CF8
:100238004CEA113102D0404261EB410113F0004F0A
:100248004FEA03334CEA133302D0524263EB4303C1
:1002580094EA050F00F0A780A4F10104D5F1200E5F
:100268000DDB02FA0EFC22FA05F2801841F10001BA
:1002780003FA0EF2801843FA05F359410EE0A5F18E
:1002880020050EF1200E012A03FA0EFC28BF4CF0BF
:10029800020C43FA05F3C01851EBE37101F0004575
:1002A80007D54FF0000EDCF1000C7EEB00006EEB82
:1002B8000101B1F5801F1BD3B1F5001F0CD349080C
:1002C8005FEA30004FEA3C0C04F101044FEA445263
:1002D80012F5800F80F09A80BCF1004F08BF5FEAEA
:1002E800500C50F1000041EB045141EA050130BDCA
:1002F8005FEA4C0C404141EB0101013C28BFB1F5DC
:10030800801FE9D291F0000F04BF01460020B1FA26
:1003180081F308BF2033A3F10B03B3F120020CDAF9
:100328000C3208DD02F1140CC2F10C0201FA0CF0D7
:1003380021FA02F10CE002F11402D8BFC2F1200C3C
:1003480001FA02F120FA0CFCDCBF41EA0C019040F2
:10035800E41AA2BF01EB0451294330BD6FEA04043B
:100368001F3C1CDA0C340EDC04F11404C4F1200226
:1003780020FA04F001FA02F340EA030021FA04F338
:1003880045EA030130BDC4F10C04C4F1200220FA8F
:1003980002F001FA04F340EA0300294630BD21FACD
:1003A80004F0294630BD94F0000F83F4801306BF93
:1003B80081F480110134013D4EE77FEA645C18BF87
:1003C8007FEA655C29D094EA050F08BF90EA020F1E
:1003D80005D054EA000C04BF1946104630BD91EA16
:1003E800030F1EBF0021002030BD5FEA545C05D119
:1003F8004000494128BF41F0004130BD14F5800458
:100408003CBF01F5801130BD01F0004545F0FE41CB
:1004180041F470014FF0000030BD7FEA645C1ABF00
:10042800194610467FEA655C1CBF0B46024650EA37
:10043800013406BF52EA033591EA030F41F4002163
:1004480030BD00BF90F0000F04BF0021704730B5E9
:100458004FF4806404F132044FF000054FF00001BE
:1004680050E700BF90F0000F04BF0021704730B57F
:100478004FF4806404F1320410F0004548BF404254
:100488004FF000013EE700BF42004FEAE2014FEAA9
:1004980031014FEA02701FBF12F07F4393F07F4F84
:1004A80081F06051704732F07F4208BF704793F087
:1004B8007F4F04BF41F40021704730B54FF460749A
:1004C80001F0004521F000411CE700BF50EA01029D
:1004D80008BF704730B54FF000050AE050EA010246
:1004E80008BF704730B511F0004502D5404261EBB6
:1004F80041014FF4806404F132045FEA915C3FF4F7
:10050800D8AE4FF003025FEADC0C18BF03325FEA93
:10051800DC0C18BF033202EBDC02C2F1200300FA44
:1005280003FC20FA02F001FA03FE40EA0E0021FA69
:1005380002F11444BDE600BF70B54FF0FF0C4CF457
:10054800E06C1CEA11541DBF1CEA135594EA0C0F09
:1005580095EA0C0F00F0DEF82C4481EA030621EA44
:100568004C5123EA4C5350EA013518BF52EA03357F
:1005780041F4801143F4801338D0A0FB02CE4FF031
:100588000005E1FB02E506F00042E0FB03E54FF061
:100598000006E1FB03569CF0000F18BF4EF0010E59
:1005A800A4F1FF04B6F5007F64F5407404D25FEA55
:1005B8004E0E6D4146EB060642EAC62141EA555108
:1005C8004FEAC52040EA5E504FEACE2EB4F1FD0C4A
:1005D80088BFBCF5E06F1ED8BEF1004F08BF5FEAC8
:1005E800500E50F1000041EB045170BD06F000467A
:1005F80046EA010140EA020081EA0301B4EB5C0427
:10060800C2BFD4EB0C0541EA045170BD41F480111E
:100618004FF0000E013C00F3AB8014F1360FDEBF43
:10062800002001F0004170BDC4F10004203C35DA1F
:100638000C341BDC04F11404C4F1200500FA05F3A2
:1006480020FA04F001FA05F240EA020001F0004243
:1006580021F0004110EBD37021FA04F642EB0601B9
:100668005EEA430E08BF20EAD37070BDC4F10C04E3
:10067800C4F1200500FA04F320FA05F001FA04F2A7
:1006880040EA020001F0004110EBD37041F1000193
:100698005EEA430E08BF20EAD37070BDC4F120059E
:1006A80000FA05F24EEA020E20FA04F301FA05F206
:1006B80043EA020321FA04F001F0004121FA04F2AE
:1006C80020EA020000EBD3705EEA430E08BF20EA7E
:1006D800D37070BD94F0000F0FD101F000464000B8
:1006E80041EB010111F4801F08BF013CF7D041EA3A
:1006F800060195F0000F18BF704703F0004652003E
:1007080043EB030313F4801F08BF013DF7D043EA0E
:100718000603704794EA0C0F0CEA135518BF95EAC4
:100728000C0F0CD050EA410618BF52EA4306D1D14B
:1007380081EA030101F000414FF0000070BD50EA6A
:10074800410606BF1046194652EA430619D094EAF4
:100758000C0F02D150EA013613D195EA0C0F05D1DE
:1007680052EA03361CBF104619460AD181EA030132
:1007780001F0004141F0FE4141F470014FF00000EA
:1007880070BD41F0FE4141F4780170BD70B54FF085
:10079800FF0C4CF4E06C1CEA11541DBF1CEA135505
:1007A80094EA0C0F95EA0C0F00F0A7F8A4EB0504E7
:1007B80081EA030E52EA03354FEA013100F08880DE
:1007C8004FEA03334FF0805545EA131343EA1263A7
:1007D8004FEA022245EA111545EA10654FEA00265C
:1007E8000EF000419D4208BF964244F1FD0404F515
:1007F800407402D25B084FEA3202B61A65EB030571
:100808005B084FEA32024FF480104FF4002CB6EB2D
:10081800020E75EB030E22BFB61A754640EA0C00AD
:100828005B084FEA3202B6EB020E75EB030E22BFED
:10083800B61A754640EA5C005B084FEA3202B6EB2E
:10084800020E75EB030E22BFB61A754640EA9C00ED
:100858005B084FEA3202B6EB020E75EB030E22BFBD
:10086800B61A754640EADC0055EA060E18D04FEA7B
:10087800051545EA16754FEA06164FEAC30343EA1B
:1008880052734FEAC2025FEA1C1CC0D111F4801FE8
:100898000BD141EA00014FF000004FF0004CB6E7E1
:1008A80011F4801F04BF01430020B4F1FD0C88BF80
:1008B800BCF5E06F3FF6AFAEB5EB030C04BFB6EB8B
:1008C800020C5FEA500C50F1000041EB045170BD7E
:1008D8000EF0004E4EEA113114EB5C04C2BFD4EBAB
:1008E8000C0541EA045170BD41F480114FF0000E2F
:1008F800013C90E645EA060E8DE60CEA135594EAAB
:100908000C0F08BF95EA0C0F3FF43BAF94EA0C0FAD
:100918000AD150EA01347FF434AF95EA0C0F7FF422
:1009280025AF104619462CE795EA0C0F06D152EA76
:1009380003353FF4FDAE1046194622E750EA41065A
:1009480018BF52EA43067FF4C5AE50EA41047FF46B
:100958000DAF52EA43057FF4EBAE12E74A0011D21D
:1009680012F5001211D20DD56FF47873B3EB625201
:100978000ED44FEAC12343F0004343EA505323FA0D
:1009880002F070474FF00000704750EA013002D182
:100998004FF0FF3070474FF00000704753B94AB925
:1009A800002908BF00281CBF4FF0FF314FF0FF306F
:1009B80000F06EB9ADF1080C6DE904CE00F006F850
:1009C800DDF804E0DDE9022304B070472DE9F047C3
:1009D800089D04468C46002B40F083808A421746C7
:1009E80047D9B2FA82F242B1C2F1200024FA00F0EB
:1009F8009140974040EA010C94404FEA1748230C75
:100A0800BCFBF8F61FFA87FE08FB16C143EA014350
:100A180006FB0EF1994209D9FB1806F1FF3080F068
:100A28001981994240F21681023E3B445B1AA4B2F6
:100A3800B3FBF8F008FB103344EA034400FB0EFE56
:100A4800A64509D93C1900F1FF3380F00581A64578
:100A580040F2028102383C4440EA0640A4EB0E040E
:100A680000261DB1D4400023C5E900433146BDE846
:100A7800F08702B9FFDEB2FA82F2002A50D1CB1B0E
:100A88004FEA174E1FFA87F80126B3FBFEFC210C2C
:100A98000EFB1C3341EA034108FB0CF38B4207D9D8
:100AA80079180CF1FF3002D28B4200F2E9808446BB
:100AB800C91AA3B2B1FBFEF00EFB101143EA0144C0
:100AC80008FB00F8A04507D93C1900F1FF3302D212
:100AD800A04500F2D9801846A4EB080440EA0C406F
:100AE800BFE78B4209D9002D00F0B1800026C5E987
:100AF800000130463146BDE8F087B3FA83F6002E90
:100B08004AD18B4202D3824200F2B880841A61EB48
:100B1800030101208C46002DA8D0C5E9004CA5E7AB
:100B2800C2F1200320FA03F6974001FA02F04FEAD7
:100B3800174ED9403043030CB1FBFEF61FFA87F875
:100B48000EFB161143EA014306FB08F1994204FA29
:100B580002F409D9FB1806F1FF3C80F08D80994218
:100B680040F28A80023E3B445B1A81B2B3FBFEF03E
:100B78000EFB103341EA034100FB08F38B4207D90F
:100B8800791800F1FF3C73D28B4271D9023839448D
:100B9800CB1A40EA064678E7C6F1200C03FA06F4B9
:100BA80022FA0CF31C4320FA0CF701FA06F34FEA79
:100BB800144E21FA0CF11F433B0CB1FBFEF91FFA4E
:100BC80084F80EFB191143EA014109FB08FA8A452A
:100BD80002FA06F200FA06F308D9611809F1FF30A3
:100BE80048D28A4546D9A9F102092144A1EB0A0154
:100BF800BFB2B1FBFEF00EFB101147EA014700FB44
:100C080008F8B84507D9E71900F1FF312ED2B845E1
:100C18002CD90238274440EA0940A7EB0807A0FB73
:100C280002894F45C64649461AD317D05DB1B3EB82
:100C38000E0267EB010707FA0CFCF2404CEA0202CD
:100C4800F740C5E9002700263146BDE8F0872E4663
:100C580028460BE70646E9E61846FDE64345E5D291
:100C6800B8EB020E69EB04010138DFE70846D2E76A
:100C780060468DE78146B9E7664675E730464AE73C
:100C8800ACF1020C394413E702383C4424E700BFB6
:100C9800704700BF80B500AF01220821024803F069
:100CA800ABF800BF80BD00BF000C024080B584B027
:100CB80000AF002208212F4803F09EF801220821E6
:100CC8002C4803F099F80A2302222B492B4804F0F8
:100CD80084FE0023FB604FF400437B8100237B608C
:100CE8003FE07B68002B06DB7B68032B03DC7B681B
:100CF8000433FB6018E07B68032B07DD7B68072B58
:100D080004DC7B68C3F10703FB600DE07B68072BFD
:100D180006DD7B680B2B03DC7B680433FB6003E098
:100D28007B68C3F11703FB60134B1A887B89134058
:100D38009BB2002B05D0124AFB68002122F8131041
:100D480009E00F4AFB6832F81330013399B20C4AB4
:100D5800FB6822F813107B895B087B817B68013371
:100D68007B607B680F2BBCDD00BF00BF1037BD4622
:100D780080BD00BF000C0240380000208C0100201C
:100D88004400002080B483B000AF0346FB71FB79B8
:100D9800102B01D9002308E0FB79074A32F81330F9
:100DA800012B0CBF01230023DBB218460C37BD46CC
:100DB8005DF8047B704700BF4400002080B483B016
:100DC80000AF0346FB71FB79102B01D900230AE021
:100DD800FB79084A32F81320074B1B889A4201D244
:100DE800002300E0012318460C37BD465DF8047B5C
:100DF800704700BF440000200000002080B500AF0D
:100E08001E2002F067FC03461A461C4B1A70162077
:100E180002F060FC03461A46184B5A70152002F07F
:100E280059FC03461A46154B9A70062002F052FCEC
:100E380003461A46114BDA700F2002F04BFC0346AA
:100E48001A460E4B1A71092002F044FC03461A4652
:100E58000A4B5A71172002F03DFC03461A46074B0D
:100E68009A7132230322D021054803F043FC03463C
:100E7800002B00D0FEE700BF80BD00BF6C00002043
:100E8800C400002080B588B004AF03460A46FB7151
:100E98001346BB71BB79184602F01CFC0346FB7372
:100EA800FB799AB20A2302930123019307F10F03F6
:100EB80000930123D021034803F0FCF800BF10374A
:100EC800BD4680BDC400002080B584B004AF0A23AD
:100ED800029307230193254B009301230022D0217D
:100EE800234803F0E1F9214B1B78184602F0D8FBA0
:100EF80003461A461F4B1A701C4B5B78184602F0C3
:100F0800CFFB03461A461C4B1A70184B9B781846A1
:100F180002F0C6FB03461A46184B1A70134BDB78CF
:100F2800184602F0BDFB03461A46154B1A700F4BC4
:100F38001B79184602F0B4FB03461A46114B1A7087
:100F48000A4B5B79184602F0ABFB03461A460E4B78
:100F58001A70064B9B79184602F0A2FB03461A4604
:100F68000A4B1A7000BFBD4680BD00BF6C00002050
:100F7800C4000020640000206600002069000020F2
:100F880068000020670000206A000020650000203B
:100F980080B58EB000AF07F11C0300221A605A60BA
:100FA8009A60DA601A615A619A613B4600221A60B7
:100FB8005A609A60DA601A615A619A612F4B4FF051
:100FC80020421A602D4B2E4A5A602C4B00229A6000
:100FD8002A4B0022DA60294B00221A61274B102283
:100FE8005A61264B00229A61244B0022DA61234B76
:100FF80000221A62214B00225A62204B4FF4805281
:101008009A621E4B0022DA621C4B4FF480421A632C
:101018001A4B00225A63194B00229A63174B00227D
:101028005A640F23FB610F233B623C237B6200233E
:10103800BB621023FB6211233B6300237B630823FD
:101048003B600F237B600923BB600023FB601023F8
:101058003B6111237B610023BB613A4607F11C0306
:101068001946064805F09CF80346002B01D000F00D
:101078009BFE00BF3837BD4680BD00BF740000200E
:10108800040100A080B586B000AF3B1D00221A60A5
:101098005A609A60DA601A611C4B1B68002B31D1C8
:1010A8001A4B01221A6000233B60194B9B6B184AAC
:1010B80043F001039363164B9B6B03F001033B6002
:1010C8003B684FF688737B600223BB600023FB609C
:1010D80003233B610C237B613B1D19460D4802F03D
:1010E800EFFC4CF2B3737B600223BB600023FB6010
:1010F80003233B610C237B613B1D1946064802F024
:10110800DFFC00E000BF1837BD4680BD3C00002072
:101118000038024000100240000C024080B582B046
:1011280000AF7860FFF7AEFF00BF0837BD4680BD4F
:1011380080B58CB000AF07F11C0300221A605A601A
:101148009A60DA601A610023BB616F4B1B6B6E4AB1
:1011580043F0100313636C4B1B6B03F01003BB616C
:10116800BB6900237B61684B1B6B674A43F0040330
:101178001363654B1B6B03F004037B617B690023DE
:101188003B61614B1B6B604A43F0800313635E4B0A
:101198001B6B03F080033B613B690023FB605A4BE8
:1011A8001B6B594A43F001031363574B1B6B03F046
:1011B8000103FB60FB680023BB60534B1B6B524A67
:1011C80043F008031363504B1B6B03F00803BB6029
:1011D800BB6800237B604C4B1B6B4B4A43F04003BE
:1011E8001363494B1B6B03F040037B607B68002350
:1011F8003B60454B1B6B444A43F002031363424B6D
:101208001B6B03F002033B603B68002270213F48E0
:1012180002F0F2FD00224FF400513D4802F0ECFDCF
:10122800002240213B4802F0E7FD00224FF4807184
:10123800394802F0E1FD00220821384802F0DCFDBF
:101248007023FB6101233B6200237B620023BB62A6
:1012580007F11C0319462D4802F032FC4FF40053E5
:10126800FB6101233B6200237B620023BB6207F121
:101278001C031946264802F023FCC023FB61002307
:101288003B6200237B6207F11C031946224802F0E7
:1012980017FC3023FB6100233B6200237B6207F1CC
:1012A8001C0319461A4802F00BFC4023FB6101237A
:1012B8003B6200237B620023BB6207F11C031946D3
:1012C800144802F0FDFB4FF48073FB6101233B627D
:1012D80000237B620023BB6207F11C0319460E48FA
:1012E80002F0EEFB0823FB6101233B6200237B62D3
:1012F8000023BB6207F11C031946084802F0E0FB13
:1013080000BF3037BD4680BD0038024000100240A3
:10131800000802400018024000000240000C024091
:1013280080B500AF124B134A1A60114B124A5A602B
:101338000F4B00229A600E4B0022DA600C4B4FF4E0
:1013480080421A610A4B00225A61094B00229A61B5
:10135800074B0022DA61064B00221A62044802F0A9
:1013680065FD0346002B01D000F01EFD00BF80BDC7
:10137800C400002000540040A086010080B58AB057
:1013880000AF786007F1140300221A605A609A606F
:10139800DA601A617B681B68194A93422BD10023D3
:1013A8003B61184B1B6B174A43F002031363154B41
:1013B8001B6B03F002033B613B69C0237B61122373
:1013C800BB610023FB6103233B6204237B6207F1BB
:1013D800140319460C4802F073FB0023FB60094B09
:1013E8001B6C084A43F400131364064B1B6C03F48C
:1013F8000013FB60FB6800BF2837BD4680BD00BFF7
:1014080000540040003802400004024080B483B019
:1014180000AF0346FB80044AFB88138000BF0C37EB
:10142800BD465DF8047B7047FEFF0F6080B483B053
:1014380000AF0346FB80044AFB88538000BF0C378B
:10144800BD465DF8047B7047FEFF0F6080B483B033
:1014580000AF064B5B889BB2FB80FB889BB21846AB
:101468000C37BD465DF8047B704700BFFEFF0F6078
:1014780090B583B000AF0446084611461A46234685
:10148800FB800346BB800B467B8013463B802A20AB
:10149800FFF7BCFFFB881B0A9BB21846FFF7C6FF85
:1014A800FB88DBB29BB21846FFF7C0FF7B881B0A9C
:1014B8009BB21846FFF7BAFF7B88DBB29BB218468F
:1014C800FFF7B4FF2B20FFF7A1FFBB881B0A9BB2D5
:1014D8001846FFF7ABFFBB88DBB29BB21846FFF795
:1014E800A5FF3B881B0A9BB21846FFF79FFF3B8866
:1014F800DBB29BB21846FFF799FF2C20FFF786FF57
:1015080000BF0C37BD4690BD80B584B000AF034620
:10151800FB80FB881B0A9BB2DBB23B72FB88DBB209
:101528007B72154B1B88013B9AB2134B5B88013BBE
:101538009BB200210020FFF79BFF0023FB8111E0F5
:101548000023BB8106E0FB881846FFF76FFFBB89C5
:101558000133BB81084B5B88BA899A42F3D3FB8974
:101568000133FB81044B1B88FA899A42E8D300BFF8
:1015780000BF1037BD4680BD1801002080B582B07D
:1015880000AF0346FB800B46BB8013467B80BB88BD
:10159800FA88B988F888FFF76BFF7B881846FFF749
:1015A80045FF00BF0837BD4680BD000090B587B035
:1015B80000AF0446084611461A462346FB800346F8
:1015C800BB800B46FB7013463B8000237B75FB8872
:1015D8003B8297F82C305B08FB73FB7BDB08DBB2A4
:1015E8001A46FB7B03F00703DBB2002B14BF012371
:1015F8000023DBB213449AB297F82C309BB212FB4B
:1016080003F3BB81FB78203BFB70FB7B9AB2FB8822
:1016180013449BB2013B9CB297F82C309AB2BB881A
:1016280013449BB2013B9BB2B988F8882246FFF766
:101638001FFF00237B827AE097F82C300C2B28D0F0
:1016480097F82C30102B08D1FA787B8A3C49120184
:101658000A4413441B78FB751BE097F82C30182BB1
:101668000BD1FA78798A374813465B0013441B017B
:1016780003440B441B78FB750BE097F82C30202BA8
:101688005AD1FA787B8A304992010A4413441B786C
:10169800FB750023BB7544E097F83030002B20D150
:1016A800FA7DBB7D42FA03F303F00103002B04D05B
:1016B8003B881846FFF7BAFE03E03B8D1846FFF754
:1016C800B5FE7B7D01337B757B7DFA7BB3FBF2F145
:1016D80002FB01F29B1ADBB2002B1FD100237B75A2
:1016E80022E0FA7DBB7D42FA03F303F00103002BED
:1016F80005D03A88B988FB881846FFF73FFFFB8872
:101708000133FB80FA883B8AD21AFB7B9A4205D1C7
:101718003B8AFB80BB880133BB8005E0BB7D01337E
:10172800BB75BB7D072BB7D97B8A01337B827A8A4D
:10173800BB899A4280D300E000BF1C37BD4690BDEC
:10174800A46D0008947300086485000880B485B00F
:1017580000AF03460A46FB711346BB710123FB60C9
:1017680004E0FA79FB6802FB03F3FB60BB795A1EBD
:10177800BA71002BF5D1FB6818461437BD465DF8E1
:10178800047B704790B589B004AF044608461146FB
:101798001A462346FB800346BB800B467B801346D4
:1017A8007B700023BB7397F828305B087B7300239A
:1017B800FB7359E07C887A78FB7BD31ADBB2013B58
:1017C800DBB219460A20FFF7C1FF0346B4FBF3F169
:1017D8002A4BA3FB0123DA0813469B0013445B0042
:1017E800CA1A13463B73BB7B002B21D1FA7B7B784B
:1017F800013B9A421CDA3B7B002B17D1FB7B9AB248
:101808007B7B9BB212FB03F39AB2FB88134498B21A
:101818003A8CB9880023029397F828300193BB8C3F
:10182800009313462022FFF7C1FE1AE00123BB7381
:10183800FB7B9AB27B7B9BB212FB03F39AB2FB88C9
:10184800134498B23B7B3033DAB23C8CB98800231E
:10185800029397F828300193BB8C00932346FFF737
:10186800A5FEFB7B0133FB73FA7B7B789A42A1D3FD
:1018780000BF00BF1437BD4690BD00BFCDCCCCCC57
:1018880080B483B000AF0346FB71FB791B09DBB260
:1018980003F00303DBB2002B07D00A4B4FF4A0720E
:1018A8001A80084BF0225A8006E0064BF0221A8074
:1018B800044B4FF4A0725A8000BF0C37BD465DF848
:1018C800047B70471801002080B500AF00224FF458
:1018D8000051AA4802F090FA4FF4FA7001F0BAFFEA
:1018E80001224FF40051A54802F086FA4FF4FA702D
:1018F80001F0B0FF0020FFF7C3FFD320FFF786FDFC
:10190800FFF7A4FD03461A469D4B9A80FFF79EFDFC
:1019180003461A469A4B9A80FFF798FD03461A46E3
:10192800974B9A80964B9B881B029AB2944B9A804D
:10193800FFF78CFD03461A46914B9B8813439AB2D6
:101948008F4B9A80CF20FFF761FD0020FFF76EFDD7
:10195800C120FFF76BFD3020FFF768FDED20FFF792
:1019680055FD6420FFF762FD0320FFF75FFD12209D
:10197800FFF75CFD8120FFF759FDE820FFF746FDE2
:101988008520FFF753FD1020FFF750FD7A20FFF761
:101998004DFDCB20FFF73AFD3920FFF747FD2C20FE
:1019A800FFF744FD0020FFF741FD3420FFF73EFD1F
:1019B8000220FFF73BFDF720FFF728FD2020FFF767
:1019C80035FDEA20FFF722FD0020FFF72FFD00205C
:1019D800FFF72CFDC020FFF719FD1B20FFF726FDA0
:1019E800C120FFF713FD0120FFF720FDC520FFF7F9
:1019F8000DFD3020FFF71AFD3020FFF717FDC72037
:101A0800FFF704FDB720FFF711FD3620FFF7FEFCB6
:101A18000820FFF70BFD3A20FFF7F8FC5520FFF7E9
:101A280005FDB120FFF7F2FC0020FFF7FFFC1A20AC
:101A3800FFF7FCFCB620FFF7E9FC0A20FFF7F6FCED
:101A4800A220FFF7F3FCF220FFF7E0FC0020FFF7ED
:101A5800EDFC2620FFF7DAFC0120FFF7E7FCE02089
:101A6800FFF7D4FC0F20FFF7E1FC2A20FFF7DEFC8C
:101A78002820FFF7DBFC0820FFF7D8FC0E20FFF733
:101A8800D5FC0820FFF7D2FC5420FFF7CFFCA92093
:101A9800FFF7CCFC4320FFF7C9FC0A20FFF7C6FC80
:101AA8000F20FFF7C3FC0020FFF7C0FC0020FFF762
:101AB800BDFC0020FFF7BAFC0020FFF7B7FCE120CF
:101AC800FFF7A4FC0020FFF7B1FC1520FFF7AEFCE0
:101AD8001720FFF7ABFC0720FFF7A8FC1120FFF742
:101AE800A5FC0620FFF7A2FC2B20FFF79FFC562041
:101AF800FFF79CFC3C20FFF799FC0520FFF796FCBC
:101B08001020FFF793FC0F20FFF790FC3F20FFF712
:101B18008DFC3F20FFF78AFC0F20FFF787FC2B2066
:101B2800FFF774FC0020FFF781FC0020FFF77EFC24
:101B38000120FFF77BFC3F20FFF778FC2A20FFF706
:101B480065FC0020FFF772FC0020FFF76FFC002007
:101B5800FFF76CFCEF20FFF769FC1120FFF756FC3C
:101B6800782001F077FE2920FFF750FC01224FF47E
:101B78008071044802F040F900BF80BD00080240AF
:101B8800180100200000024090B58BB004AFBA6085
:101B98001A460346FB810B46BB811346FB80FB8933
:101BA800BB820023FB7548E0FB7D002B45D1FA89F9
:101BB800264B1B88194697F82C305B08DBB2CB1AEA
:101BC8009A423FDCBA89214B5B88194697F82C303A
:101BD800CB1A9A4236DCBB681B78802B02D90123CA
:101BE800FB752AE0BB681B780D2B0BD197F82C30BE
:101BF8009AB2BB891344BB81BB8AFB81BB680133A2
:101C0800BB6017E0BB681A78FC88B989F88997F82F
:101C18003030029397F82C3001933B8D0093234684
:101C2800FFF7C4FC97F82C305B08DBB29AB2FB894B
:101C38001344FB81BB680133BB60BB681B78002B76
:101C4800B2D100E000BF1C37BD4690BD180100208E
:101C580080B500AF01F08CFD00F01EF8FFF768FAC0
:101C680001F0ACFC01F0BEFBFFF792F9FFF758FB5F
:101C780000F07CF8002001F09FFB0346002B07D101
:101C8800FFF722F9FFF712F80A21002001F02CFBD8
:101C980000F032F9EEE7000080B594B000AF07F12C
:101CA800200330220021184605F034F807F10C0310
:101CB80000221A605A609A60DA601A610023BB60D9
:101CC800284B1B6C274A43F080531364254B1B6C2D
:101CD80003F08053BB60BB6800237B60224B1B680A
:101CE800214A43F4804313601F4B1B6803F480436D
:101CF8007B607B6802233B620123FB6210233B630A
:101D08000223BB630023FB6308233B64A8237B6493
:101D18000223BB640423FB6407F12003184603F085
:101D280073F90346002B01D000F03EF80F23FB6047
:101D380002233B6100237B614FF4A053BB614FF446
:101D4800A053FB6107F10C030521184603F0D4FBEF
:101D58000346002B01D000F027F800BF5037BD46DE
:101D680080BD00BF003802400070004080B500AF61
:101D780001F0B0FA0A21002001F0B6FA4FF47A71A6
:101D8800012001F0B1FAFEF785FFFFF79DFD002065
:101D9800FFF7BAFBFFF732F800F0D6FF00F0A2FE1B
:101DA80001F0DAF900BF80BD80B400AF72B600BFA1
:101DB800FEE7000080B584B004AF3F4B1A783F4B74
:101DC8001B789A425DD13E4B1A783E4B1B789A425B
:101DD80057D13D4B1A783D4B1B789A4251D13C4B19
:101DE8001A783C4B1B789A424BD13B4B1A783B4BA9
:101DF8001B789A4245D13A4B1A783A4B1B789A424B
:101E08003FD1394B1B78002B3BD1384B1B78384AD4
:101E18001278B3FBF2F102FB01F29B1ADBB298B223
:101E28000023029318230193002300930023314ACF
:101E3800C821FFF7A9FE2D4B1B7801332C4A1278D5
:101E480093FBF2F102FB01F29B1ADAB2274B1A70EC
:101E5800264B1B78264A1278B3FBF2F102FB01F2FB
:101E68009B1ADBB298B200230293182301934FF414
:101E7800784300934FF6FF731E4AC821FFF784FE8C
:101E880016E01A4B1B781A4A1278B3FBF2F102FBE0
:101E980001F29B1ADBB298B2002302931823019334
:101EA800002300930023134AC821FFF76DFE00BFEB
:101EB80000BFBD4680BD00BF0E0000200800002006
:101EC8000D000020070000200C0000200600002064
:101ED8000B000020050000200A000020040000205C
:101EE80009000020030000204200002043000020D9
:101EF8000F000020446D000880B500AF114B1B781F
:101F0800022B16D0022B18DC002B02D0012B0BD091
:101F180013E000F023FE00F061FEFFF74BFF00F036
:101F280067FB00F0BBFB08E000F096F900F060FBEF
:101F380003E000F009F800F05BFB00F08BFE00BF47
:101F480080BD00BF4000002080B500AFB94B002223
:101F58001A70B94B1B78062B00F26A8101A252F85D
:101F680023F000BF891F0008991F000809200008F6
:101F780079200008E920000859210008C921000833
:101F88000021012000F01AFFAB4B01221A704FE12B
:101F9800AA4B1B78002B02D0012B15D02AE0A84BA6
:101FA8001B780121184600F047FF012001F004FAD0
:101FB8000346002B1DD1A14B01221A704FF47A71F0
:101FC800012001F091F914E09D4B1B78002118467F
:101FD80000F032FF012001F0EFF90346002B09D190
:101FE800964B00221A704FF47A71012001F07CF9A7
:101FF80000E000BF924800F013FD00F081FB17E1FC
:102008008E4B1B78002B02D0012B15D02AE08D4B6C
:102018001B780121184600F04DFF012001F0CCF992
:102028000346002B1DD1854B01221A704FF47A719B
:10203800012001F059F914E0824B1B780021184661
:1020480000F038FF012001F0B7F90346002B09D151
:102058007A4B00221A704FF47A71012001F044F98A
:1020680000E000BF774800F0DBFC00F049FBDFE050
:10207800724B1B78002B02D0012B15D02AE0724B33
:102088001B780121184600F053FF012001F094F954
:102098000346002B1DD1694B01221A704FF47A7147
:1020A800012001F021F914E0674B1B780021184644
:1020B80000F03EFF012001F07FF90346002B09D113
:1020C8005E4B00221A704FF47A71012001F00CF96E
:1020D80000E000BF5C4800F0A3FC00F011FBA7E0A3
:1020E800564B1B78002B02D0012B15D02AE0574BFA
:1020F8001B780121184600F075FF012001F05CF9FA
:102108000346002B1DD14D4B01221A704FF47A71F2
:10211800012001F0E9F814E04C4B1B780021184627
:1021280000F060FF012001F047F90346002B09D1B8
:10213800424B00221A704FF47A71012001F0D4F852
:1021480000E000BF414800F06BFC00F0D9FA6FE0F6
:102158003A4B1B78002B02D0012B15D02AE03C4BC0
:102168001B780121184600F07BFF012001F024F9BB
:102178000346002B1DD1314B01221A704FF47A719E
:10218800012001F0B1F814E0314B1B78002118460A
:1021980000F066FF012001F00FF90346002B09D17A
:1021A800264B00221A704FF47A71012001F09CF836
:1021B80000E000BF264800F033FC00F0A1FA37E049
:1021C8001E4B1B78002B02D0012B15D02AE0214B87
:1021D8001B780121184600F081FF012001F0ECF87E
:1021E8000346002B1DD1154B01221A704FF47A714A
:1021F800012001F079F814E0164B1B7800211846ED
:1022080000F06CFF012001F0D7F80346002B09D13C
:102218000A4B00221A704FF47A71012001F064F819
:1022280000E000BF0B4800F0FBFB00F069FAFFE795
:1022380000BF80BD4200002041000020580100205E
:10224800090000200A0000200B0000200C000020DC
:102258000D0000200E00002080B500AFC04B1B7899
:10226800062B00F2AB8101A252F823F0912200085C
:102278000123000871230008E12300085124000805
:10228800C124000831250008B64B1B78002B02D06A
:10229800012B15D02AE0B44B1B780121184600F019
:1022A8008DFD012001F088F80346002B1DD1AD4BB0
:1022B80001221A704FF47A71012001F015F814E028
:1022C800A94B1B780021184600F078FD012001F089
:1022D80073F80346002B09D1A24B00221A704FF461
:1022E8007A71012001F000F800E000BF9E4800F07C
:1022F80097FB00F005FA61E19A4B1B78002B02D09E
:10230800012B15D02AE0994B1B780121184600F0C3
:1023180093FD012001F050F80346002B1DD1914B8D
:1023280001221A704FF47A71012000F0DDFF14E0E9
:102338008E4B1B780021184600F07EFD012001F02D
:102348003BF80346002B09D1864B00221A704FF444
:102358007A71012000F0C8FF00E000BF834800F058
:102368005FFB00F0CDF929E17E4B1B78002B02D0F2
:10237800012B15D02AE07E4B1B780121184600F06E
:1023880099FD012001F018F80346002B1DD1754B6B
:1023980001221A704FF47A71012000F0A5FF14E0B1
:1023A800734B1B780021184600F084FD012001F0D2
:1023B80003F80346002B09D16A4B00221A704FF428
:1023C8007A71012000F090FF00E000BF684800F03B
:1023D80027FB00F095F9F1E0624B1B78002B02D047
:1023E800012B15D02AE0634B1B780121184600F019
:1023F8009FFD012000F0E0FF0346002B1DD1594B43
:1024080001221A704FF47A71012000F06DFF14E078
:10241800584B1B780021184600F08AFD012000F077
:10242800CBFF0346002B09D14E4B00221A704FF404
:102438007A71012000F058FF00E000BF4D4800F01D
:10244800EFFA00F05DF9B9E0464B1B78002B02D09B
:10245800012B15D02AE0484B1B780121184600F0C3
:10246800C1FD012000F0A8FF0346002B1DD13D4B04
:1024780001221A704FF47A71012000F035FF14E040
:102488003D4B1B780021184600F0ACFD012000F000
:1024980093FF0346002B09D1324B00221A704FF4E8
:1024A8007A71012000F020FF00E000BF324800F000
:1024B800B7FA00F025F981E02A4B1B78002B02D0EF
:1024C800012B15D02AE02D4B1B780121184600F06E
:1024D800C7FD012000F070FF0346002B1DD1214BE2
:1024E80001221A704FF47A71012000F0FDFE14E009
:1024F800224B1B780021184600F0B2FD012000F0A5
:102508005BFF0346002B09D1164B00221A704FF4CB
:102518007A71012000F0E8FE00E000BF174800F0E3
:102528007FFA00F0EDF849E00E4B1B78002B02D043
:10253800012B27D03CE0124B1B780121184600F0F4
:10254800CDFD012000F038FF0346002B2FD1054BAD
:1025580001221A704FF47A71012000F0C5FE26E0BE
:102568004100002058010020020000200300002044
:1025780004000020050000200600002007000020BD
:10258800080000200E4B1B780021184600F0A6FD1D
:10259800012000F011FF0346002B09D1094B00224E
:1025A8001A704FF47A71012000F09EFE00E000BF1F
:1025B800034800F035FA00F0A3F8FFE700BF80BD3C
:1025C800080000205801002080B584B004AF002323
:1025D800029318230193002300930023034A1E212A
:1025E8001420FFF7D1FA00BFBD4680BD4C6D00082E
:1025F80080B500AF264B1B78002B02D0012B34D0BE
:102608003FE00020FEF7BEFB0346012B25D1214BFE
:102618001B78022B18D0022B19DC002B02D0012BBF
:1026280009D014E000F0DAFA1A4B01221A701A4B9A
:1026380000221A700BE000F053FB174B00221A70AF
:10264800144B02221A7002E0124B00221A70FFF794
:10265800BBFF0F4B01221A7015E00020FEF792FB1A
:102668000346FF2B0FD100230FE00020FEF78AFB63
:102678000346002B03D1064B00221A7004E0002306
:1026880003E0002301E000BF0123184680BD00BF1E
:1026980054010020400000204100002080B500AF18
:1026A800154BDB78002B02D0012B12D01DE0012046
:1026B800FEF768FB0346012B03D1104B01221A7069
:1026C80015E00120FEF75EFB0346FF2B0FD1002328
:1026D8000FE00120FEF756FB0346002B03D1064B03
:1026E8000022DA7004E0002303E0002301E000BFC9
:1026F8000123184680BD00BF54010020420000207D
:1027080080B500AF604B9B78002B03D0012B00F005
:10271800A980B3E00C20FEF735FB0346012B40F0FF
:1027280099805A4B1B78012B5DD1594B1B78062B8E
:1027380056D801A252F823F05D2700087127000837
:102748008527000899270008D5270008C127000811
:10275800AD2700084F4B1B7819460020FEF792FB67
:102768004B4B01221A703BE04B4B1B78194601205A
:10277800FEF788FB464B02221A7031E0474B1B7864
:1027880019460220FEF77EFB414B03221A7027E010
:10279800434B1B7819460320FEF774FB3C4B06227B
:1027A8001A701DE03F4B1B7819460620FEF76AFB9E
:1027B800374B05221A7013E03B4B1B78194605204E
:1027C800FEF760FB324B04221A7009E0374B1B7886
:1027D80019460420FEF756FB2D4B00221A7000BF45
:1027E80000F0FCF932E02A4B1B78062B2CD801A20A
:1027F80052F823F019280008212800082928000881
:10280800312800084928000841280008392800080C
:102818001F4B01221A7017E01D4B02221A7013E099
:102828001B4B03221A700FE0194B06221A700BE09B
:10283800174B05221A7007E0154B04221A7003E0A3
:10284800134B00221A7000BF00F04AFA0E4B012207
:102858009A7015E00C20FEF795FA0346FF2B0FD16E
:1028680000230FE00C20FEF78DFA0346002B03D15E
:10287800054B00229A7004E0002303E0002301E0E6
:1028880000BF0123184680BD5401002040000020ED
:102898004100002002000020030000200400002066
:1028A8000500002008000020070000200600002086
:1028B80080B485B000AF7860564B1B78062B00F2C9
:1028C800A28001A252F823F0ED280008ED280008A4
:1028D8000929000825290008792900085D29000828
:1028E800412900087B681B780133DAB27B681A70CB
:1028F8007B681B783B2B7DD97B6800221A7079E0B6
:102908007B681B780133DAB27B681A707B681B78A6
:10291800172B71D97B6800221A706DE07B681B78D1
:102928000133DAB27B681A707B681B78072B65D98C
:102938007B6801221A7061E07B681B780133DAB288
:102948007B681A707B681B78632B59D97B680022D7
:102958001A7055E07B681B780133DAB27B681A700D
:102968007B681B780C2B4DD97B6801221A7049E0D3
:102978007B681B780133DAB27B681A701E23FB73FD
:10298800254B1B78013B0B2B2AD801A252F823F0C8
:10299800C9290008CF290008C9290008E929000821
:1029A800C9290008E9290008C9290008C929000817
:1029B800E9290008C9290008E9290008C9290008E7
:1029C8001F23FB730DE0154B1B7803F00303DBB2E9
:1029D800002B02D01C23FB7303E01D23FB7300E0D4
:1029E80000BF7B681B78FA7B9A420CD27B68012275
:1029F8001A7008E000BF06E000BF04E000BF02E074
:102A080000BF00E000BF00BF1437BD465DF8047B7F
:102A1800704700BF41000020070000200800002088
:102A280080B582B000AF78602C4B5B78022B31D038
:102A3800022B49DC002B02D0012B15D044E00320E7
:102A4800FEF7A0F90346012B06D17868FFF730FF9F
:102A5800224B01225A7039E00320FEF793F903460E
:102A6800FF2B33D1002335E00320FEF78BF9034613
:102A7800002B03D1194B00225A702AE00320FEF7DD
:102A88009DF90346012B03D1144B02225A7020E012
:102A980000231FE0124B00221A70022000F08CFC69
:102AA8000346002B06D17868FFF702FFC8210220F1
:102AB80000F01AFC0320FEF765F90346002B07D146
:102AC800064B00225A7003E0002303E000BF00E039
:102AD80000BF012318460837BD4680BD54010020B9
:102AE8005801002080B500AF154B1B78194600200F
:102AF800FEF7C8F9134B1B7819460620FEF7C2F9F2
:102B0800114B1B7819460520FEF7BCF90F4B1B78B3
:102B180019460420FEF7B6F90D4B1B781946032019
:102B2800FEF7B0F90B4B1B7819460220FEF7AAF9FD
:102B3800094B1B7819460120FEF7A4F900BF80BD98
:102B480002000020080000200700002006000020E6
:102B580005000020040000200300002080B400AF1E
:102B6800104B1A78104B1A70104B1A78104B1A70B9
:102B7800104B1A78104B1A70104B1A78104B1A70A9
:102B8800104B1A78104B1A70104B1A78104B1A7099
:102B9800104B1A78104B1A7000BFBD465DF8047BC5
:102BA800704700BF6400002002000020660000207B
:102BB80003000020690000200400002068000020B5
:102BC8000500002067000020060000206A000020A1
:102BD80007000020650000200800002080B500AF35
:102BE800154B1B780121184600F0FCF9134B1B7894
:102BF8000121184600F09CF9114B1B780121184659
:102C080000F058F90F4B1B780121184600F014F911
:102C18000D4B1B780121184600F022FA0B4B1B784C
:102C28000121184600F05AFA094B1B780121184671
:102C380000F0C4F800BF80BD060000200500002099
:102C480004000020030000200700002008000020E6
:102C58000200002080B584B004AF1D4B1B78022B06
:102C680024D0022B31DC002B02D0012B0FD02CE01A
:102C780000230293182301934FF4784300934FF6EF
:102C8800FF73144A1E211420FEF77EFF1DE0002367
:102C98000293182301934FF4784300934FF6FF7380
:102CA8000D4A1E211420FEF76FFF0EE00023029349
:102CB800182301934FF4784300934FF6FF73074AA4
:102CC8001E211420FEF760FF00BF00BFBD4680BD77
:102CD80040000020606D00084C6D0008706D000811
:102CE80080B500AF124B1B780121184600F07AF925
:102CF800104B1B780121184600F01AF90E4B1B786F
:102D08000121184600F0D6F80C4B1B780121184613
:102D180000F092F80A4B1B780121184600F0A0F940
:102D2800084B1B780121184600F0D8F900BF80BD78
:102D38000C0000200B0000200A00002009000020E1
:102D48000D0000200E00002080B400AF1A4B4FF495
:102D5800FC621A60184B00225A60174B96221A72AE
:102D6800154B64225A72144B6E229A72124B6422CB
:102D7800DA72114B46221A730F4B64225A730E4BA8
:102D880014229A730C4B9A22DA730B4B46221A744C
:102D9800094B9A225A74084B6E229A74064B9A224F
:102DA800DA74054B96221A75034B9A225A7500BF9E
:102DB800BD465DF8047B70475C010020B0B586B065
:102DC80004AF03460A46FB711346BB71BB79002B5F
:102DD80016D0184B1B7A98B2164B5B7A99B2FB79CE
:102DE8009CB2144B1B689BB2124A526892B21825C7
:102DF80002950192009302232246FEF7C3FC15E0D8
:102E08000C4B1B7A98B20B4B5B7A99B2FB799CB24C
:102E1800084B5B689BB2074A526892B21825029524
:102E28000192009302232246FEF7ACFC00BF08374C
:102E3800BD46B0BD5C010020B0B586B004AF034606
:102E48000A46FB711346BB71BB79002B16D0184B91
:102E58009B7A98B2164BDB7A99B2FB799CB2144BE9
:102E68001B689BB2124A526892B2182502950192C9
:102E7800009302232246FEF785FC15E00C4B9B7A53
:102E880098B20B4BDB7A99B2FB799CB2084B5B6822
:102E98009BB2074A526892B2182502950192009394
:102EA80002232246FEF76EFC00BF0837BD46B0BDC0
:102EB8005C010020B0B586B004AF03460A46FB713A
:102EC8001346BB71BB79002B16D0184B1B7B98B2ED
:102ED800164B5B7B99B2FB799CB2144B1B689BB277
:102EE800124A526892B21825029501920093022361
:102EF8002246FEF747FC15E00C4B1B7B98B20B4BA8
:102F08005B7B99B2FB799CB2084B5B689BB2074A22
:102F1800526892B218250295019200930223224624
:102F2800FEF730FC00BF0837BD46B0BD5C0100208D
:102F3800B0B586B004AF03460A46FB711346BB71B1
:102F4800BB79002B2FD0FB79012B16D0234B9B7B11
:102F580098B2224BDB7B99B2FB799CB21F4B1B6862
:102F68009BB21E4A526892B21825029501920093AC
:102F780002232246FEF706FC2BE0184B9B7B98B2F7
:102F8800164BDB7B99B2154B1B689AB2134B5B68E7
:102F98009BB2002402941824019400931346104A0B
:102FA800FEF7F2FD15E00D4B9B7B98B20B4BDB7BDC
:102FB80099B2FB799CB2094B5B689BB2074A52688D
:102FC80092B2182502950192009302232246FEF739
:102FD800D9FB00BF0837BD46B0BD00BF5C0100206B
:102FE800806D0008B0B586B004AF03460A46FB7191
:102FF8001346BB71BB79002B16D0184B1B7C98B2BB
:10300800164B5B7C99B2FB799CB2144B1B689BB244
:10301800124A526892B2182502950192009302232F
:103028002246FEF7AFFB15E00C4B1B7C98B20B4B0E
:103038005B7C99B2FB799CB2084B5B689BB2074AF0
:10304800526892B2182502950192009302232246F3
:10305800FEF798FB00BF0837BD46B0BD5C010020F5
:10306800B0B586B004AF03460A46FB711346BB7180
:10307800BB79002B16D0184B9B7C98B2164BDB7C87
:1030880099B2FB799CB2144B1B689BB2124A5268E6
:1030980092B2182502950192009302232246FEF768
:1030A80071FB15E00C4B9B7C98B20B4BDB7C99B207
:1030B800FB799CB2084B5B689BB2074A526892B294
:1030C800182502950192009302232246FEF75AFB27
:1030D80000BF0837BD46B0BD5C010020B0B586B062
:1030E80004AF03460A46FB711346BB71BB79002B3C
:1030F80016D0184B1B7D98B2164B5B7D99B2FB79A5
:103108009CB2144B1B689BB2124A526892B21825A3
:1031180002950192009302232246FEF733FB15E045
:103128000C4B1B7D98B20B4B5B7D99B2FB799CB223
:10313800084B5B689BB2074A526892B21825029501
:103148000192009302232246FEF71CFB00BF0837BA
:10315800BD46B0BD5C01002090B585B004AF00202D
:10316800FEF7D2F9534B9B7B98B2524BDB7B9BB259
:10317800183B99B24F4B1B689AB24E4B5B689BB297
:103188000024029418240194009313464A4AFEF737
:10319800FBFC484B1B7A98B2464B5B7A9BB2183BB8
:1031A80099B2444B1B689AB2424B5B689BB20024AD
:1031B80002941824019400931346404AFEF7E4FC55
:1031C8003C4B9B7A98B23B4BDB7A9BB2183B99B24B
:1031D800384B1B689AB2374B5B689BB20024029449
:1031E8001824019400931346354AFEF7CDFC314B61
:1031F8001B7B9BB2183B98B22E4B5B7B9BB2183B58
:1032080099B22C4B1B689AB22A4B5B689BB200247C
:10321800029418240194009313462A4AFEF7B4FC3A
:10322800244B1B7C98B2234B5B7C9BB2183B99B216
:10323800204B1B689AB21F4B5B689BB20024029418
:1032480018240194009313461F4AFEF79DFC194B5E
:103258009B7C98B2174BDB7C9BB2183B99B2154B01
:103268001B689AB2134B5B689BB200240294182423
:10327800019400931346154AFEF786FC0D4B1B7DFF
:1032880098B20C4B5B7D9BB2183B99B2094B1B68FB
:103298009AB2084B5B689BB20024029418240194EC
:1032A800009313460A4AFEF76FFC00BF0437BD4679
:1032B80090BD00BF5C010020846D0008886D000887
:1032C8008C6D0008906D0008986D00089C6D0008D2
:1032D800A06D000880B500AF024802F0F5FF00BFFE
:1032E80080BD00BFE401002080B582B000AF7860E7
:1032F80039603B684FF47A7202FB03F31846FDF716
:10330800A1F84FF000020C4BFDF740FA02460B46BD
:1033180010461946FDF722FB024608497B68DB0088
:103328000B445A60054A7B68012102F8331000BF3C
:103338000837BD4680BD00BF00408F4074010020A3
:1033480080B582B000AF786000F004F800BF08379D
:10335800BD4680BD80B483B000AF00237B601FE012
:10336800144A7B6812F83330002B16D0114A7B6858
:10337800DB0013445B685A1E0E497B68DB000B4474
:103388005A600C4A7B68DB0013445B68002B04D14D
:10339800084A7B68002102F833107B6801337B60A0
:1033A8007B68022BDCD900BF00BF0C37BD465DF837
:1033B800047B70477401002080B483B000AF78604C
:1033C800074A7B6812F83330012B0CBF0123002316
:1033D800DBB218460C37BD465DF8047B704700BF6A
:1033E8007401002080B500AF174B184A1A60164BBD
:1033F8004FF482725A60144B00229A60124B0022DA
:10340800DA60114B00221A610F4B00225A610E4BF1
:103418004FF400729A610C4B0022DA610A4B0022C9
:103428001A62094B00225A62074B00229A62064B25
:103438000A22DA62044802F047FA0346002B01D058
:10344800FEF7B2FC00BF80BD8C01002000300140B7
:1034580080B58AB000AF786007F1140300221A60C3
:103468005A609A60DA601A617B681B68194A93424D
:103478002BD100233B61184B5B6C174A43F48053F4
:103488005364154B5B6C03F480533B613B69002329
:10349800FB60114B1B6B104A43F0020313630E4B86
:1034A8001B6B03F00203FB60FB6838237B6102237C
:1034B800BB610023FB6103233B6205237B6207F1A9
:1034C80014031946054800F0FBFA00BF2837BD462B
:1034D80080BD00BF003001400038024000040240B7
:1034E80080B483B000AF00237B60104B5B6C0F4A45
:1034F80043F4804353640D4B5B6C03F480437B605F
:103508007B6800233B60094B1B6C084A43F08053DF
:103518001364064B1B6C03F080533B603B6800BF91
:103528000C37BD465DF8047B704700BF0038024089
:1035380080B400AFFEE780B400AFFEE780B400AF10
:10354800FEE780B400AFFEE780B400AFFEE780B4CA
:1035580000AF00BFBD465DF8047B704780B400AF84
:1035680000BFBD465DF8047B704780B400AF00BF64
:10357800BD465DF8047B704780B500AF00F04AF99E
:1035880000BF80BD80B500AF024802F00DFF00BF4C
:1035980080BD00BFE401002080B400AF064BD3F823
:1035A8008830054A43F47003C2F8883000BFBD462E
:1035B8005DF8047B704700BF00ED00E080B586B081
:1035C80000AF07F1080300221A605A609A60DA60B7
:1035D8003B4600221A605A601D4B4FF080421A6029
:1035E8001B4B40F247325A60194B00229A60184B25
:1035F8006322DA60164B00221A61154B00229A6189
:10360800134802F011FE0346002B01D0FEF7CCFB55
:103618004FF48053BB6007F1080319460C4802F0C9
:10362800CBFF0346002B01D0FEF7BEFB00233B6017
:1036380000237B603B461946054803F0E7F903463B
:10364800002B01D0FEF7B0FB00BF1837BD4680BD88
:10365800E401002080B584B000AF78607B681B6807
:10366800B3F1804F15D10023FB600C4B1B6C0B4A48
:1036780043F001031364094B1B6C03F00103FB6067
:10368800FB68002200211C2000F0E3F91C2000F058
:10369800FCF900BF1037BD4680BD00BF00380240AE
:1036A80080B483B000AF0346FB71FB791B09DBB222
:1036B8001A46920013445B00DAB2FB7903F00F0359
:1036C800DBB21344DBB218460C37BD465DF8047B09
:1036D8007047000080B483B000AF0346FB71FB79EC
:1036E8000D4AA2FB0323DB08DBB21B0158B2FA79AF
:1036F800094BA3FB0213D9080B469B000B445B0044
:10370800D31ADBB25BB203435BB2DBB218460C37A9
:10371800BD465DF8047B7047CDCCCCCCDFF834D007
:103728000D480E490E4A002302E0D458C450043311
:10373800C4188C42F9D30B4A0B4C002301E01360E8
:103748000432A242FBD3FFF727FF03F0BFFAFEF7CC
:103758007FFA704700000220000000201C000020B3
:103768004C9D00081C00002030020020FEE70000ED
:1037780080B500AF0E4B1B680D4A43F4007313600D
:103788000B4B1B680A4A43F480631360084B1B68A1
:10379800074A43F480731360032000F04FF90F20A9
:1037A80000F008F8FFF79CFE0023184680BD00BF14
:1037B800003C024080B582B000AF7860124B1A68B6
:1037C800124B1B7819464FF47A73B3FBF1F3B2FB33
:1037D800F3F3184600F067F90346002B01D00123E4
:1037E8000EE07B680F2B0AD8002279684FF0FF3073
:1037F80000F02FF9064A7B681360002300E00123DC
:1038080018460837BD4680BD10000020180000206B
:103818001400002080B400AF064B1B781A46064BF4
:103828001B681344044A136000BFBD465DF8047B5F
:10383800704700BF180000202C02002080B400AFA1
:10384800034B1B681846BD465DF8047B704700BFF4
:103858002C02002080B584B000AF7860FFF7EEFF3F
:10386800B8607B68FB60FB68B3F1FF3F05D00A4B8B
:103878001B781A46FB681344FB6000BFFFF7DEFFA6
:103888000246BB68D31AFA689A42F7D800BF00BF4D
:103898001037BD4680BD00BF1800002080B485B039
:1038A80000AF78607B6803F00703FB600C4BDB68B4
:1038B800BB60BA684FF6FF031340BB60FB681A028F
:1038C800BB68134343F0BF6343F40033BB60044A4F
:1038D800BB68D36000BF1437BD465DF8047B7047F2
:1038E80000ED00E080B400AF044BDB681B0A03F076
:1038F80007031846BD465DF8047B704700ED00E0FD
:1039080080B483B000AF0346FB7197F90730002BF2
:103918000BDBFB7903F01F02074997F907305B09B6
:10392800012000FA02F241F8232000BF0C37BD46FF
:103938005DF8047B704700BF00E100E080B483B00D
:1039480000AF03463960FB7197F90730002B0ADB9B
:103958003B68DAB20C4997F907301201D2B20B442E
:1039680083F800230AE03B68DAB20849FB7903F0E0
:103978000F03043B1201D2B20B441A7600BF0C3776
:10398800BD465DF8047B704700E100E000ED00E013
:1039980080B489B000AFF860B9607A60FB6803F062
:1039A8000703FB61FB69C3F10703042B28BF04234A
:1039B800BB61FB690433062B02D9FB69033B00E0BA
:1039C80000237B614FF0FF32BB6902FA03F3DA434D
:1039D800BB681A407B699A404FF0FF317B6901FA56
:1039E80003F3D9437B680B40134318462437BD467D
:1039F8005DF8047B7047000080B582B000AF786046
:103A08007B68013BB3F1807F01D301230FE00A4AB1
:103A18007B68013B53600F214FF0FF30FFF78EFFAB
:103A2800054B00229A60044B07221A6000231846AF
:103A38000837BD4680BD00BF10E000E080B582B009
:103A480000AF78607868FFF729FF00BF0837BD46E8
:103A580080BD80B586B000AF0346B9607A60FB735D
:103A680000237B61FFF73EFF78617A68B96878695F
:103A7800FFF78EFF024697F90F3011461846FFF7F9
:103A88005DFF00BF1837BD4680BD80B582B000AF6E
:103A98000346FB7197F907301846FFF731FF00BF5F
:103AA8000837BD4680BD80B582B000AF78607868C1
:103AB800FFF7A2FF034618460837BD4680BD000041
:103AC80080B489B000AF7860396000237B6100233F
:103AD8003B610023BB610023FB616BE10122FB69B1
:103AE80002FA03F37B613B681B687A6913403B6108
:103AF8003A697B699A4240F05A813B685B6803F0F7
:103B08000303012B05D03B685B6803F00303022B1A
:103B180030D17B689B68BB61FB695B00032202FABA
:103B280003F3DB43BA691340BB613B68DA68FB699E
:103B38005B0002FA03F3BA691343BB617B68BA6995
:103B48009A607B685B68BB610122FB6902FA03F338
:103B5800DB43BA691340BB613B685B681B0903F030
:103B68000102FB6902FA03F3BA691343BB617B687C
:103B7800BA695A603B685B6803F00303032B17D0EC
:103B88007B68DB68BB61FB695B00032202FA03F315
:103B9800DB43BA691340BB613B689A68FB695B0009
:103BA80002FA03F3BA691343BB617B68BA69DA6046
:103BB8003B685B6803F00303022B23D1FB69DA0837
:103BC8007B68083253F82230BB61FB6903F00703B6
:103BD8009B000F2202FA03F3DB43BA691340BB616F
:103BE8003B681A69FB6903F007039B0002FA03F3B9
:103BF800BA691343BB61FB69DA087B680832B969A3
:103C080043F822107B681B68BB61FB695B000322D9
:103C180002FA03F3DB43BA691340BB613B685B6894
:103C280003F00302FB695B0002FA03F3BA6913436A
:103C3800BB617B68BA691A603B685B6803F4403310
:103C4800002B00F0B4800023FB60604B5B6C5F4A84
:103C580043F4804353645D4B5B6C03F48043FB6027
:103C6800FB685B4AFB699B08023352F82330BB614F
:103C7800FB6903F003039B000F2202FA03F3DB4303
:103C8800BA691340BB617B68524A93422BD07B6868
:103C9800514A934225D07B68504A93421FD07B6893
:103CA8004F4A934219D07B684E4A934213D07B689F
:103CB8004D4A93420DD07B684C4A934207D07B68AB
:103CC8004B4A934201D107230EE008230CE0062358
:103CD8000AE0052308E0042306E0032304E00223A6
:103CE80002E0012300E00023FA6902F003029200D7
:103CF8009340BA691343BB613549FB699B0802339A
:103D0800BA6941F823203B4B1B68BB613B69DB4325
:103D1800BA691340BB613B685B6803F48033002BCE
:103D280003D0BA693B691343BB61324ABB6913606C
:103D3800304B5B68BB613B69DB43BA691340BB61CD
:103D48003B685B6803F40033002B03D0BA693B6916
:103D58001343BB61274ABB695360264B9B68BB6111
:103D68003B69DB43BA691340BB613B685B6803F49A
:103D78008013002B03D0BA693B691343BB611D4A0A
:103D8800BB6993601B4BDB68BB613B69DB43BA696A
:103D98001340BB613B685B6803F40013002B03D03E
:103DA800BA693B691343BB61124ABB69D360FB69BB
:103DB8000133FB61FB690F2B7FF690AE00BF00BF9C
:103DC8002437BD465DF8047B704700BF00380240C9
:103DD8000038014000000240000402400008024090
:103DE800000C02400010024000140240001802407B
:103DF800001C0240003C014080B483B000AF7860F2
:103E08000B467B8013467B707B78002B03D07A8827
:103E18007B689A6103E07B881A047B689A6100BF1B
:103E28000C37BD465DF8047B7047000080B584B050
:103E380000AF78607B68002B01D101232BE17B6800
:103E480093F83D30DBB2002B06D17B68002283F863
:103E58003C207868FDF792FA7B68242283F83D209D
:103E68007B681B681A687B681B6822F001021A606D
:103E78007B681B681A687B681B6842F400421A60FA
:103E88007B681B681A687B681B6822F400421A600A
:103E980001F006FDF8607B685B68814A934207D8A9
:103EA800FB68804A934294BF01230023DBB206E0FB
:103EB800FB687D4A934294BF01230023DBB2002BA9
:103EC80001D00123E7E0FB68784AA2FB03239B0C9F
:103ED800BB607B681B685B6823F03F017B681B68DD
:103EE800BA680A435A607B681B681B6A23F03F0163
:103EF8007B685B686A4A934202D8BB68013309E071
:103F0800BB684FF4967202FB03F3694AA2FB0323D2
:103F18009B0901337A6812680B4313627B681B683C
:103F2800DB6923F44F4222F0FF027B685B685C493F
:103F38008B4219D8FB68591E7B685B685B00B1FB34
:103F4800F3F3591C40F6FC730B40002B0AD0FB68B6
:103F5800591E7B685B685B00B1FBF3F30133C3F365
:103F68000B0351E004234FE07B689B68002B11D1C1
:103F7800FB68581E7B6859680B465B000B44B0FB16
:103F8800F3F30133C3F30B03002B0CBF012300230E
:103F9800DBB212E0FB68581E7B6859680B469B0031
:103FA8000B4499000B44B0FBF3F30133C3F30B0349
:103FB800002B0CBF01230023DBB2002B01D001230F
:103FC80022E07B689B68002B0ED1FB68581E7B683B
:103FD80059680B465B000B44B0FBF3F30133C3F3A2
:103FE8000B0343F400430FE0FB68581E7B685968D5
:103FF8000B469B000B4499000B44B0FBF3F30133D1
:10400800C3F30B0343F44043796809681343CB6156
:104018007B681B681B6823F0C0017B68DA697B68D2
:104028001B6A1A437B681B680A431A607B681B6813
:104038009B6823F4034323F0FF037A6811697A68C5
:10404800D26811437A6812680B4393607B681B68D7
:10405800DB6823F0FF017B685A697B689B691A4318
:104068007B681B680A43DA607B681B681A687B6890
:104078001B6842F001021A607B6800221A647B68A0
:10408800202283F83D207B6800221A637B68002287
:1040980083F83E20002318461037BD4680BD00BF78
:1040A800A08601007F841E00FF083D0083DE1B43BD
:1040B800D34D621080B588B002AFF860084611464B
:1040C8001A4603467B810B463B811346FB80FFF76C
:1040D800B5FB7861FB6893F83D30DBB2202B40F0EC
:1040E800D9807B690093192301226D49F86800F093
:1040F800ADFD0346002B01D00223CCE0FB6893F80A
:104108003C30012B01D10223C5E0FB68012283F872
:104118003C20FB681B681B6803F00103012B07D0D8
:10412800FB681B681A68FB681B6842F001021A608A
:10413800FB681B681A68FB681B6822F400621A6037
:10414800FB68212283F83D20FB68402283F83E204B
:10415800FB6800221A64FB683A6A5A62FB68BA8CE8
:104168005A85FB685B8D9AB2FB681A85FB684D4AD5
:10417800DA62F8883A8979897B690193BB6A009386
:104188000346F86800F0E4FB0346002B52D00123F5
:1041980081E07A69B96AF86800F02EFE0346002BC0
:1041A8000DD0FB681B6C042B07D1FB681B681A68D1
:1041B800FB681B6842F400721A6001236BE0FB681D
:1041C8005B6A1A78FB681B681A61FB685B6A5A1C91
:1041D800FB685A62FB681B8D013B9AB2FB681A8523
:1041E800FB685B8D9BB2013B9AB2FB685A85FB6802
:1041F8001B685B6903F00403042B1BD1FB681B8D50
:10420800002B17D0FB685B6A1A78FB681B681A6179
:10421800FB685B6A5A1CFB685A62FB681B8D013B92
:104228009AB2FB681A85FB685B8D9BB2013B9AB218
:10423800FB685A85FB681B8D002BAAD17A69B96A7D
:10424800F86800F01AFE0346002B0DD0FB681B6CC3
:10425800042B07D1FB681B681A68FB681B6842F4CB
:1042680000721A60012316E0FB681B681A68FB6875
:104278001B6842F400721A60FB68202283F83D2014
:10428800FB68002283F83E20FB68002283F83C206C
:10429800002300E0022318461837BD4680BD00BF42
:1042A800020010000000FFFF80B58CB002AFF8607C
:1042B800084611461A4603467B810B463B81134646
:1042C800FB80FFF7BBFA7862FB6893F83D30DBB2FE
:1042D800202B40F008827B6A0093192301227B4936
:1042E800F86800F0B3FC0346002B01D00223FBE181
:1042F800FB6893F83C30012B01D10223F4E1FB6801
:10430800012283F83C20FB681B681B6803F001034B
:10431800012B07D0FB681B681A68FB681B6842F012
:1043280001021A60FB681B681A68FB681B6822F4A4
:1043380000621A60FB68222283F83D20FB68402255
:1043480083F83E20FB6800221A64FB683A6B5A62C5
:10435800FB68BA8E5A85FB685B8D9AB2FB681A8532
:10436800FB685B4ADA62F8883A8979897B6A019343
:10437800BB6B00930346F86800F080FB0346002BF4
:1043880001D00123B0E1FB681B8D002B13D1002362
:104398003B62FB681B685B693B62FB681B689B6947
:1043A8003B623B6AFB681B681A68FB681B6842F43F
:1043B80000721A6084E1FB681B8D012B1BD1FB681E
:1043C8001B681A68FB681B6822F480621A60002365
:1043D800FB61FB681B685B69FB61FB681B689B6989
:1043E800FB61FB69FB681B681A68FB681B6842F481
:1043F80000721A6064E1FB681B8D022B1BD1FB68FD
:104408001B681A68FB681B6822F480621A60FB68E4
:104418001B681A68FB681B6842F400621A60002374
:10442800BB61FB681B685B69BB61FB681B689B69B8
:10443800BB61BB6944E100237B61FB681B685B6966
:104448007B61FB681B689B697B617B6938E1FB6862
:104458001B8D032B00F2F180FB681B8D012B23D1F0
:104468007A6AB96BF86800F049FD0346002B01D061
:10447800012339E1FB681B681A69FB685B6AD2B2E1
:104488001A70FB685B6A5A1CFB685A62FB681B8DD2
:10449800013B9AB2FB681A85FB685B8D9BB2013BB6
:1044A8009AB2FB685A850BE1FB681B8D022B4ED133
:1044B8007B6A0093BB6B00220649F86800F0C6FBD4
:1044C8000346002B08D001230EE100BF02001000B4
:1044D8000000FFFF04000100FB681B681A68FB6806
:1044E8001B6842F400721A60FB681B681A69FB6853
:1044F8005B6AD2B21A70FB685B6A5A1CFB685A6224
:10450800FB681B8D013B9AB2FB681A85FB685B8DC3
:104518009BB2013B9AB2FB685A85FB681B681A6913
:10452800FB685B6AD2B21A70FB685B6A5A1CFB684C
:104538005A62FB681B8D013B9AB2FB681A85FB68BF
:104548005B8D9BB2013B9AB2FB685A85B8E07B6AE7
:104558000093BB6B00226649F86800F077FB0346BE
:10456800002B01D00123BFE0FB681B681A68FB68B9
:104578001B6822F480621A60FB681B681A69FB6872
:104588005B6AD2B21A70FB685B6A5A1CFB685A6293
:10459800FB681B8D013B9AB2FB681A85FB685B8D33
:1045A8009BB2013B9AB2FB685A857B6A0093BB6B4E
:1045B80000224F49F86800F049FB0346002B01D060
:1045C800012391E0FB681B681A68FB681B6842F4CA
:1045D80000721A60FB681B681A69FB685B6AD2B2D2
:1045E8001A70FB685B6A5A1CFB685A62FB681B8D71
:1045F800013B9AB2FB681A85FB685B8D9BB2013B55
:104608009AB2FB685A85FB681B681A69FB685B6A83
:10461800D2B21A70FB685B6A5A1CFB685A62FB6864
:104628001B8D013B9AB2FB681A85FB685B8D9BB2B8
:10463800013B9AB2FB685A8542E07A6AB96BF8681E
:1046480000F05CFC0346002B01D001234CE0FB6822
:104658001B681A69FB685B6AD2B21A70FB685B6AEE
:104668005A1CFB685A62FB681B8D013B9AB2FB68B7
:104678001A85FB685B8D9BB2013B9AB2FB685A8531
:10468800FB681B685B6903F00403042B18D1FB6803
:104698001B681A69FB685B6AD2B21A70FB685B6AAE
:1046A8005A1CFB685A62FB681B8D013B9AB2FB6877
:1046B8001A85FB685B8D9BB2013B9AB2FB685A85F1
:1046C800FB681B8D002B7FF4C2AEFB68202283F8A9
:1046D8003D20FB68002283F83E20FB68002283F817
:1046E8003C20002300E0022318462837BD4680BD41
:1046F8000400010080B58AB002AFF8607A603B60C0
:104708000B467B81FFF79AF8F8610123BB61FB68D0
:1047180093F83D30DBB2202B40F01181FB69009308
:10472800192301228849F86800F090FA0346002B03
:1047380001D0022304E1FB6893F83C30012B01D13E
:104748000223FDE0FB68012283F83C20FB681B681C
:104758001B6803F00103012B07D0FB681B681A686C
:10476800FB681B6842F001021A60FB681B681A6844
:10477800FB681B6822F400621A60FB68242283F835
:104788003D20FB6800221A64FB68704ADA62FB6805
:104798001B681A68FB681B6842F480721A60FB6920
:1047A80000933B6800224FF00111F86800F04EFAC0
:1047B8000346002B0DD0FB681B681B6803F480734D
:1047C800B3F5807F03D1FB684FF400721A640323AA
:1047D800B6E07B89DBB21A46FB681B6802F0FE0272
:1047E8001A61FFF72BF8F861FB681B685B6903F037
:1047F8000203022B0CBF01230023DBB2FB75FB680D
:104808001B685B6903F48063B3F5806F0CBF0123F9
:104818000023DBB2BB7525E0FFF710F80246FB6901
:10482800D31A3A689A4202D33B68002B03D1FB683B
:10483800A02283F83D20FB681B685B6903F0020334
:10484800022B0CBF01230023DBB2FB75FB681B683E
:104858005B6903F48063B3F5806F0CBF0123002309
:10486800DBB2BB75FB6893F83D30DBB2A02B05D0FB
:10487800FB7D002B02D1BB7D002BCDD0FB68202215
:1048880083F83D20FB681B685B6903F00203022B79
:1048980029D1FB681B681A68FB681B6842F4007220
:1048A8001A6000233B61FB681B685B693B61FB681E
:1048B8001B689B693B613B69FB69009319230122D3
:1048C8002149F86800F0C2F90346002B01D0012302
:1048D80036E0FB68202283F83D20FB68002283F83D
:1048E8003C2000232CE0FB681B681A68FB681B68E7
:1048F80042F400721A60FB681B686FF480625A61A8
:10490800FB690093192301220F49F86800F09EF90A
:104918000346002B01D0012312E0BB690133BB61C0
:10492800BA697B689A42FFF432AFFB68202283F8A9
:104938003D20FB68002283F83C20012300E002238D
:1049480018462037BD4680BD020010000000FFFF5A
:1049580080B588B002AFF860084611461A4603468B
:104968007B810B463B811346FB80FB681B681A68FA
:10497800FB681B6842F480721A607B6A00933B6A8A
:1049880000224FF00111F86800F060F90346002B8F
:104998000DD0FB681B681B6803F48073B3F5807F38
:1049A80003D1FB684FF400721A6403235FE07B892C
:1049B800DBB21A46FB681B6802F0FE021A617B6ACA
:1049C8003A6A2D49F86800F098F90346002B01D09F
:1049D80001234CE000237B61FB681B685B697B61FA
:1049E800FB681B689B697B617B697A6A396AF8682E
:1049F80000F002FA0346002B0DD0FB681B6C042B59
:104A080007D1FB681B681A68FB681B6842F40072D0
:104A18001A6001232BE0FB88012B05D13B89DAB210
:104A2800FB681B681A6121E03B891B0A9BB2DAB25A
:104A3800FB681B681A617A6A396AF86800F0DCF961
:104A48000346002B0DD0FB681B6C042B07D1FB68B9
:104A58001B681A68FB681B6842F400721A6001231D
:104A680005E03B89DAB2FB681B681A610023184627
:104A78001837BD4680BD00BF0200010080B588B070
:104A880002AFF860084611461A4603467B810B467A
:104A98003B811346FB80FB681B681A68FB681B6830
:104AA80042F480621A60FB681B681A68FB681B681E
:104AB80042F480721A607B6A00933B6A00224FF0CE
:104AC8000111F86800F0C2F80346002B0DD0FB680E
:104AD8001B681B6803F48073B3F5807F03D1FB6800
:104AE8004FF400721A640323AAE07B89DBB21A46EA
:104AF800FB681B6802F0FE021A617B6A3A6A524937
:104B0800F86800F0FAF80346002B01D0012397E07B
:104B180000237B61FB681B685B697B61FB681B6822
:104B28009B697B617B697A6A396AF86800F064F985
:104B38000346002B0DD0FB681B6C042B07D1FB68C8
:104B48001B681A68FB681B6842F400721A6001232C
:104B580076E0FB88012B05D13B89DAB2FB681B683C
:104B68001A6121E03B891B0A9BB2DAB2FB681B6819
:104B78001A617A6A396AF86800F03EF90346002B30
:104B88000DD0FB681B6C042B07D1FB681B681A68E7
:104B9800FB681B6842F400721A60012350E03B89ED
:104BA800DAB2FB681B681A617A6A396AF86800F039
:104BB80023F90346002B0DD0FB681B6C042B07D18F
:104BC800FB681B681A68FB681B6842F400721A606D
:104BD800012335E0FB681B681A68FB681B6842F410
:104BE80080721A607B6A00933B6A00224FF00111C1
:104BF800F86800F02BF80346002B0DD0FB681B6803
:104C08001B6803F48073B3F5807F03D1FB684FF40E
:104C180000721A64032313E07B89DBB243F00103BB
:104C2800DAB2FB681B681A617B6A3A6A0649F86857
:104C380000F063F80346002B01D0012300E00023B5
:104C480018461837BD4680BD0200010080B584B003
:104C580000AFF860B9603B601346FB7125E03B6824
:104C6800B3F1FF3F21D0FEF7E9FD0246BB69D31A35
:104C78003A689A4202D33B68002B16D1FB6800229F
:104C88001A63FB68202283F83D20FB68002283F822
:104C98003E20FB681B6C43F02002FB681A64FB682B
:104CA800002283F83C20012323E0BB681B0CDBB205
:104CB800012B0DD1FB681B685B69DA43BB681340A5
:104CC8009BB2002B0CBF01230023DBB21A460CE079
:104CD800FB681B689B69DA43BB6813409BB2002BD7
:104CE8000CBF01230023DBB21A46FB799A42B6D0E7
:104CF800002318461037BD4680BD80B584B000AF8C
:104D0800F860B9607A603B6051E0FB681B685B69DA
:104D180003F48063B3F5806F23D1FB681B681A68BE
:104D2800FB681B6842F400721A60FB681B686FF42A
:104D380080625A61FB6800221A63FB68202283F8AC
:104D48003D20FB68002283F83E20FB681B6C43F083
:104D58000402FB681A64FB68002283F83C200123E4
:104D680046E07B68B3F1FF3F21D0FEF767FD0246BE
:104D78003B68D31A7A689A4202D37B68002B16D113
:104D8800FB6800221A63FB68202283F83D20FB6839
:104D9800002283F83E20FB681B6C43F02002FB686E
:104DA8001A64FB68002283F83C20012320E0BB68DA
:104DB8001B0CDBB2012B0CD1FB681B685B69DA4367
:104DC800BB6813409BB2002B14BF01230023DBB246
:104DD8000BE0FB681B689B69DA43BB6813409BB216
:104DE800002B14BF01230023DBB2002B8DD100233D
:104DF80018461037BD4680BD80B584B000AFF86056
:104E0800B9607A602DE0F86800F0CEF80346002B10
:104E180001D001232DE0BB68B3F1FF3F21D0FEF79D
:104E28000DFD02467B68D31ABA689A4202D3BB6862
:104E3800002B16D1FB6800221A63FB68202283F836
:104E48003D20FB68002283F83E20FB681B6C43F082
:104E58002002FB681A64FB68002283F83C200123C7
:104E680007E0FB681B685B6903F08003802BCAD1ED
:104E7800002318461037BD4680BD80B584B000AF0A
:104E8800F860B9607A602DE0F86800F08DF80346A4
:104E9800002B01D001232DE0BB68B3F1FF3F21D0E7
:104EA800FEF7CCFC02467B68D31ABA689A4202D352
:104EB800BB68002B16D1FB6800221A63FB6820220E
:104EC80083F83D20FB68002283F83E20FB681B6CBA
:104ED80043F02002FB681A64FB68002283F83C2038
:104EE800012307E0FB681B685B6903F00403042BDC
:104EF800CAD1002318461037BD4680BD80B584B09E
:104F080000AFF860B9607A6042E0FB681B685B69D3
:104F180003F01003102B19D1FB681B686FF0100207
:104F28005A61FB6800221A63FB68202283F83D203F
:104F3800FB68002283F83E20FB681A6CFB681A6441
:104F4800FB68002283F83C20012329E0FEF776FC69
:104F580002467B68D31ABA689A4202D3BB68002B10
:104F680016D1FB6800221A63FB68202283F83D20D3
:104F7800FB68002283F83E20FB681B6C43F020028C
:104F8800FB681A64FB68002283F83C20012307E0D1
:104F9800FB681B685B6903F04003402BB5D1002315
:104FA80018461037BD4680BD80B483B000AF786026
:104FB8007B681B685B6903F48063B3F5806F1BD162
:104FC8007B681B686FF480625A617B6800221A63F1
:104FD8007B68202283F83D207B68002283F83E20EE
:104FE8007B681B6C43F004027B681A647B680022B0
:104FF80083F83C20012300E0002318460C37BD4607
:105008005DF8047B7047000080B586B000AF78601B
:105018007B68002B01D1012364E27B681B6803F0E5
:105028000103002B75D0A34B9B6803F00C03042BE2
:105038000CD0A04B9B6803F00C03082B12D19D4B9E
:105048005B6803F48003B3F5800F0BD1994B1B68A1
:1050580003F40033002B5BD07B685B68002B57D1CF
:1050680001233FE27B685B68B3F5803F06D1914B33
:105078001B68904A43F4803313601DE07B685B68CB
:10508800B3F5A02F0CD18B4B1B688A4A43F48023BD
:105098001360884B1B68874A43F4803313600BE026
:1050A800844B1B68834A23F480331360814B1B684D
:1050B800804A23F4802313607B685B68002B13D03D
:1050C800FEF7BCFB386108E0FEF7B8FB02463B6917
:1050D800D31A642B01D9032304E2764B1B6803F42B
:1050E8000033002BF0D014E0FEF7A8FB386108E08D
:1050F800FEF7A4FB02463B69D31A642B01D90323AC
:10510800F0E16C4B1B6803F40033002BF0D100E096
:1051180000BF7B681B6803F00203002B63D0654B5C
:105128009B6803F00C03002B0BD0624B9B6803F0C9
:105138000C03082B1CD15F4B5B6803F48003002B26
:1051480016D15C4B1B6803F00203002B05D07B686B
:10515800DB68012B01D00123C4E1564B1B6823F007
:10516800F8027B681B69DB00524913430B603AE085
:105178007B68DB68002B20D04F4B01221A60FEF7BA
:105188005DFB386108E0FEF759FB02463B69D31A1C
:10519800022B01D90323A5E1464B1B6803F0020348
:1051A800002BF0D0434B1B6823F0F8027B681B6987
:1051B800DB00404913430B6015E03F4B00221A60A7
:1051C800FEF73CFB386108E0FEF738FB02463B6916
:1051D800D31A022B01D9032384E1364B1B6803F051
:1051E8000203002BF0D17B681B6803F00803002B37
:1051F80030D07B685B69002B16D0304B01221A60D7
:10520800FEF71CFB386108E0FEF718FB02463B6915
:10521800D31A022B01D9032364E1264B5B6F03F0F9
:105228000203002BF0D015E0244B00221A60FEF791
:1052380005FB386108E0FEF701FB02463B69D31A1B
:10524800022B01D903234DE11A4B5B6F03F00203D4
:10525800002BF0D17B681B6803F00403002B00F0DF
:10526800A0800023FB75134B1B6C03F08053002BAD
:105278000FD10023BB600F4B1B6C0E4A43F08053C9
:1052880013640C4B1B6C03F08053BB60BB68012399
:10529800FB750B4B1B6803F48073002B21D1084B63
:1052A8001B68074A43F480731360FEF7C7FA386136
:1052B80011E000BF0038024000004742800E47421C
:1052C80000700040FEF7BAFA02463B69D31A022B77
:1052D80001D9032306E1854B1B6803F48073002B77
:1052E800F0D07B689B68012B06D1814B1B6F804AED
:1052F80043F0010313671CE07B689B68052B0CD106
:105308007B4B1B6F7A4A43F004031367784B1B6F80
:10531800774A43F0010313670BE0754B1B6F744A20
:1053280023F001031367724B1B6F714A23F00403C8
:1053380013677B689B68002B15D0FEF77FFA3861EE
:105348000AE0FEF77BFA02463B69D31A41F288323B
:10535800934201D90323C5E0654B1B6F03F0020399
:10536800002BEED014E0FEF769FA38610AE0FEF788
:1053780065FA02463B69D31A41F28832934201D951
:105388000323AFE05A4B1B6F03F00203002BEED14F
:10539800FB7D012B05D1564B1B6C554A23F08053DE
:1053A80013647B689B69002B00F09B80504B9B68C3
:1053B80003F00C03082B5CD07B689B69022B41D15E
:1053C8004C4B00221A60FEF739FA386108E0FEF704
:1053D80035FA02463B69D31A022B01D9032381E02F
:1053E800434B1B6803F00073002BF0D17B68DA692C
:1053F8007B681B6A1A437B685B6A9B011A437B685C
:105408009B6A5B08013B1B041A437B68DB6A1B062B
:10541800374913434B60374B01221A60FEF70EFAE7
:10542800386108E0FEF70AFA02463B69D31A022BF4
:1054380001D9032356E02E4B1B6803F00073002BA1
:10544800F0D04EE02B4B00221A60FEF7F7F93861D6
:1054580008E0FEF7F3F902463B69D31A022B01D99B
:1054680003233FE0224B1B6803F00073002BF0D1AD
:1054780037E07B689B69012B01D1012332E01C4B8B
:105488005B68FB607B689B69012B28D0FB6803F491
:1054980080027B68DB699A4221D1FB6803F03F02F6
:1054A8007B681B6A9A421AD1FA6847F6C0731340A0
:1054B8007A68526A9201934211D1FB6803F4403230
:1054C8007B689B6A5B08013B1B049A4207D1FB6817
:1054D80003F070627B68DB6A1B069A4201D00123E5
:1054E80000E0002318461837BD4680BD0070004014
:1054F800003802406000474280B584B000AF786051
:1055080039607B68002B01D10123CCE0684B1B6814
:1055180003F007033A689A420CD9654B3A68D2B24D
:105528001A70634B1B6803F007033A689A4201D06C
:105538000123B8E07B681B6803F00203002B20D02E
:105548007B681B6803F00403002B05D0594B9B684C
:10555800584A43F4E05393607B681B6803F00803E0
:10556800002B05D0534B9B68524A43F46043936029
:10557800504B9B6823F0F0027B689B684D491343AE
:105588008B607B681B6803F00103002B44D07B68A9
:105598005B68012B07D1474B1B6803F40033002BD2
:1055A80019D101237FE07B685B68022B03D07B68FD
:1055B8005B68032B07D13F4B1B6803F00073002B7C
:1055C80009D101236FE03B4B1B6803F00203002B5A
:1055D80001D1012367E0374B9B6823F003027B6806
:1055E8005B68344913438B60FEF728F9F8600AE0DA
:1055F800FEF724F90246FB68D31A41F28832934237
:1056080001D903234FE02B4B9B6803F00C027B6806
:105618005B689B009A42EBD1254B1B6803F007039C
:105628003A689A420CD2224B3A68D2B21A70204B8E
:105638001B6803F007033A689A4201D0012332E05D
:105648007B681B6803F00403002B08D0194B9B6888
:1056580023F4E0527B68DB68164913438B607B6850
:105668001B6803F00803002B09D0124B9B6823F436
:1056780060427B681B69DB000E4913438B6000F0B6
:1056880021F802460B4B9B681B0903F00F030A49DC
:10569800CB5C22FA03F3094A1360094B1B681846CE
:1056A800FEF788F8002318461037BD4680BD00BFB6
:1056B800003C024000380240249D000810000020F1
:1056C800140000202DE9B04384B000AF00237B60B4
:1056D8000023FB6000233B600023BB60674B9B6893
:1056E80003F00C03082B0DD0082B00F2BD80002B13
:1056F80002D0042B03D0B7E0614BBB60B7E0614B2D
:10570800BB60B4E05D4B5B6803F03F037B605B4BC1
:105718005B6803F48003002B4DD0584B5B689B09F2
:105728001A464FF0000340F2FF104FF0000102EA62
:10573800000803EA0109404649464FF000024FF0CD
:1057480000034B0143EAD063420110461946B0EB0F
:10575800080061EB09014FF000024FF000038B01D4
:1057680043EA90638201121A63EB01034FF00000D1
:105778004FF00001D90041EA5271D00002460B46B1
:1057880012EB080243EB09034FF000004FF0000151
:10579800590241EAD251500202460B4610461946B8
:1057A8007B681A464FF00003FBF7F8F802460B46F1
:1057B8001346FB604AE0314B5B689B091A464FF081
:1057C800000340F2FF104FF0000102EA000403EA70
:1057D8000105204629464FF000024FF000034B0117
:1057E80043EAD063420110461946001B61EB0501EC
:1057F8004FF000024FF000038B0143EA90638201EF
:10580800121A63EB01034FF000004FF00001D900BA
:1058180041EA5271D00002460B46121945EB0303C8
:105828004FF000004FF00001990241EA92519002B6
:1058380002460B46104619467B681A464FF000038D
:10584800FBF7ACF802460B461346FB600B4B5B6854
:105858001B0C03F0030301335B003B60FA683B68F1
:10586800B2FBF3F3BB6002E0054BBB6000BFBB6853
:1058780018461037BD46BDE8B08300BF0038024067
:105888000024F40000127A0080B400AF034B1B68B8
:105898001846BD465DF8047B704700BF1000002025
:1058A80080B500AFFFF7F0FF0246054B9B689B0AE7
:1058B80003F007030349CB5C22FA03F3184680BDC3
:1058C80000380240349D000880B582B000AF78608F
:1058D8007B68002B01D101237BE07B685B6A002B8E
:1058E80008D17B685B68B3F5827F09D07B680022AA
:1058F800DA6105E07B6800221A617B6800225A6140
:105908007B6800229A627B6893F85130DBB2002BE7
:1059180006D17B68002283F850207868FDF798FD4F
:105928007B68022283F851207B681B681A687B68B1
:105938001B6822F040021A607B685B6803F482727D
:105948007B689B6803F404431A437B68DB6803F4B1
:1059580000631A437B681B6903F002031A437B68E0
:105968005B6903F001031A437B689B6903F40073C6
:105978001A437B68DB6903F038031A437B681B6AA8
:1059880003F0800342EA03017B689B6A03F4005238
:105998007B681B680A431A607B689B691B0C03F0D1
:1059A80004017B685B6A03F010027B681B680A438A
:1059B8005A607B681B68DA697B681B6822F400629E
:1059C800DA617B6800225A657B68012283F85120DE
:1059D800002318460837BD4680BD80B588B002AFA1
:1059E800F860B9603B601346FB800023FB75FB68D9
:1059F8005B68B3F5827F12D1FB689B68002B0ED1E0
:105A0800FB68042283F85120FA883B680093134608
:105A1800BA68B968F86800F0F1F80346EAE0FB688C
:105A280093F85030012B01D10223E3E0FB680122F7
:105A380083F85020FDF702FF3861FB6893F8513076
:105A4800DBB2012B02D00223FB75CAE0BB68002B36
:105A580002D0FB88002B02D10123FB75C1E0FB6853
:105A6800042283F85120FB6800225A65FB68BA6853
:105A78009A63FB68FA889A87FB68FA88DA87FB6872
:105A880000221A63FB6800229A86FB680022DA86E5
:105A9800FB6800221A64FB6800225A64FB689B6852
:105AA800B3F5004F0FD1FB681B681A68FB681B68C9
:105AB80022F040021A60FB681B681A68FB681B68C2
:105AC80022F480421A60FB681B681B6803F04003DD
